{
  "contractName": "PatientRecords",
  "abi": [
    {
      "anonymous": false,
      "inputs": [
        {
          "indexed": true,
          "internalType": "address",
          "name": "patient",
          "type": "address"
        }
      ],
      "name": "ProfileUpdated",
      "type": "event"
    },
    {
      "anonymous": false,
      "inputs": [
        {
          "indexed": true,
          "internalType": "address",
          "name": "patient",
          "type": "address"
        },
        {
          "indexed": false,
          "internalType": "uint256",
          "name": "recordId",
          "type": "uint256"
        }
      ],
      "name": "RecordAdded",
      "type": "event"
    },
    {
      "inputs": [
        {
          "internalType": "address",
          "name": "",
          "type": "address"
        },
        {
          "internalType": "uint256",
          "name": "",
          "type": "uint256"
        }
      ],
      "name": "medicalRecords",
      "outputs": [
        {
          "internalType": "string",
          "name": "diagnosis",
          "type": "string"
        },
        {
          "internalType": "string",
          "name": "prescription",
          "type": "string"
        },
        {
          "internalType": "uint256",
          "name": "date",
          "type": "uint256"
        }
      ],
      "stateMutability": "view",
      "type": "function",
      "constant": true
    },
    {
      "inputs": [
        {
          "internalType": "address",
          "name": "",
          "type": "address"
        }
      ],
      "name": "patients",
      "outputs": [
        {
          "internalType": "string",
          "name": "fullName",
          "type": "string"
        },
        {
          "internalType": "uint256",
          "name": "dob",
          "type": "uint256"
        },
        {
          "internalType": "string",
          "name": "bloodType",
          "type": "string"
        },
        {
          "internalType": "string",
          "name": "emergencyContact",
          "type": "string"
        }
      ],
      "stateMutability": "view",
      "type": "function",
      "constant": true
    },
    {
      "inputs": [
        {
          "internalType": "string",
          "name": "_fullName",
          "type": "string"
        },
        {
          "internalType": "uint256",
          "name": "_dob",
          "type": "uint256"
        },
        {
          "internalType": "string",
          "name": "_bloodType",
          "type": "string"
        },
        {
          "internalType": "string[]",
          "name": "_allergies",
          "type": "string[]"
        },
        {
          "internalType": "string",
          "name": "_emergencyContact",
          "type": "string"
        }
      ],
      "name": "updateProfile",
      "outputs": [],
      "stateMutability": "nonpayable",
      "type": "function"
    },
    {
      "inputs": [
        {
          "internalType": "string",
          "name": "_diagnosis",
          "type": "string"
        },
        {
          "internalType": "string",
          "name": "_prescription",
          "type": "string"
        }
      ],
      "name": "addMedicalRecord",
      "outputs": [],
      "stateMutability": "nonpayable",
      "type": "function"
    },
    {
      "inputs": [
        {
          "internalType": "address",
          "name": "_patient",
          "type": "address"
        }
      ],
      "name": "getPatient",
      "outputs": [
        {
          "components": [
            {
              "internalType": "string",
              "name": "fullName",
              "type": "string"
            },
            {
              "internalType": "uint256",
              "name": "dob",
              "type": "uint256"
            },
            {
              "internalType": "string",
              "name": "bloodType",
              "type": "string"
            },
            {
              "internalType": "string[]",
              "name": "allergies",
              "type": "string[]"
            },
            {
              "internalType": "string",
              "name": "emergencyContact",
              "type": "string"
            }
          ],
          "internalType": "struct PatientRecords.Patient",
          "name": "",
          "type": "tuple"
        }
      ],
      "stateMutability": "view",
      "type": "function",
      "constant": true
    },
    {
      "inputs": [
        {
          "internalType": "address",
          "name": "_patient",
          "type": "address"
        }
      ],
      "name": "getMedicalRecords",
      "outputs": [
        {
          "components": [
            {
              "internalType": "string",
              "name": "diagnosis",
              "type": "string"
            },
            {
              "internalType": "string",
              "name": "prescription",
              "type": "string"
            },
            {
              "internalType": "uint256",
              "name": "date",
              "type": "uint256"
            }
          ],
          "internalType": "struct PatientRecords.MedicalRecord[]",
          "name": "",
          "type": "tuple[]"
        }
      ],
      "stateMutability": "view",
      "type": "function",
      "constant": true
    }
  ],
  "bytecode": "0x608060405234801561001057600080fd5b506110fe806100206000396000f3fe608060405234801561001057600080fd5b50600436106100625760003560e01c80630869cfbc1461006757806397678a0314610093578063aa40b2a6146100b5578063afd8297c146100ca578063b5368e20146100ea578063e5953a451461010a575b600080fd5b61007a610075366004610c4c565b61011d565b60405161008a9493929190610f16565b60405180910390f35b6100a66100a1366004610c6d565b6102dd565b60405161008a93929190610ee0565b6100c86100c3366004610cf7565b610434565b005b6100dd6100d8366004610c4c565b61050f565b60405161008a9190610e52565b6100fd6100f8366004610c4c565b6106b3565b60405161008a9190610f60565b6100c8610118366004610c96565b61097d565b60006020819052908152604090208054819061013890611077565b80601f016020809104026020016040519081016040528092919081815260200182805461016490611077565b80156101b15780601f10610186576101008083540402835291602001916101b1565b820191906000526020600020905b81548152906001019060200180831161019457829003601f168201915b5050505050908060010154908060020180546101cc90611077565b80601f01602080910402602001604051908101604052809291908181526020018280546101f890611077565b80156102455780601f1061021a57610100808354040283529160200191610245565b820191906000526020600020905b81548152906001019060200180831161022857829003601f168201915b50505050509080600401805461025a90611077565b80601f016020809104026020016040519081016040528092919081815260200182805461028690611077565b80156102d35780601f106102a8576101008083540402835291602001916102d3565b820191906000526020600020905b8154815290600101906020018083116102b657829003601f168201915b5050505050905084565b600160205281600052604060002081815481106102f957600080fd5b90600052602060002090600302016000915091505080600001805461031d90611077565b80601f016020809104026020016040519081016040528092919081815260200182805461034990611077565b80156103965780601f1061036b57610100808354040283529160200191610396565b820191906000526020600020905b81548152906001019060200180831161037957829003601f168201915b5050505050908060010180546103ab90611077565b80601f01602080910402602001604051908101604052809291908181526020018280546103d790611077565b80156104245780601f106103f957610100808354040283529160200191610424565b820191906000526020600020905b81548152906001019060200180831161040757829003601f168201915b5050505050908060020154905083565b6040805160a0810182528681526020808201879052818301869052606082018590526080820184905233600090815280825292909220815180519293919261047f9284920190610a4d565b506020828101516001830155604083015180516104a29260028501920190610a4d565b50606082015180516104be916003840191602090910190610ad1565b50608082015180516104da916004840191602090910190610a4d565b50506040513391507fbe4ec58a792f909e102ee3d745d0c3b34a4d437a54d903c4db098d31c556422f90600090a25050505050565b6001600160a01b0381166000908152600160209081526040808320805482518185028101850190935280835260609492939192909184015b828210156106a7578382906000526020600020906003020160405180606001604052908160008201805461057a90611077565b80601f01602080910402602001604051908101604052809291908181526020018280546105a690611077565b80156105f35780601f106105c8576101008083540402835291602001916105f3565b820191906000526020600020905b8154815290600101906020018083116105d657829003601f168201915b5050505050815260200160018201805461060c90611077565b80601f016020809104026020016040519081016040528092919081815260200182805461063890611077565b80156106855780601f1061065a57610100808354040283529160200191610685565b820191906000526020600020905b81548152906001019060200180831161066857829003601f168201915b5050505050815260200160028201548152505081526020019060010190610547565b5050505090505b919050565b6106bb610b2a565b6001600160a01b03821660009081526020819052604090819020815160a081019092528054829082906106ed90611077565b80601f016020809104026020016040519081016040528092919081815260200182805461071990611077565b80156107665780601f1061073b57610100808354040283529160200191610766565b820191906000526020600020905b81548152906001019060200180831161074957829003601f168201915b505050505081526020016001820154815260200160028201805461078990611077565b80601f01602080910402602001604051908101604052809291908181526020018280546107b590611077565b80156108025780601f106107d757610100808354040283529160200191610802565b820191906000526020600020905b8154815290600101906020018083116107e557829003601f168201915b5050505050815260200160038201805480602002602001604051908101604052809291908181526020016000905b828210156108dc57838290600052602060002001805461084f90611077565b80601f016020809104026020016040519081016040528092919081815260200182805461087b90611077565b80156108c85780601f1061089d576101008083540402835291602001916108c8565b820191906000526020600020905b8154815290600101906020018083116108ab57829003601f168201915b505050505081526020019060010190610830565b5050505081526020016004820180546108f490611077565b80601f016020809104026020016040519081016040528092919081815260200182805461092090611077565b801561096d5780601f106109425761010080835404028352916020019161096d565b820191906000526020600020905b81548152906001019060200180831161095057829003601f168201915b5050505050815250509050919050565b3360009081526001602081815260408084208151606081018352878152808401879052429281019290925280549384018155845292819020835180516003909402909101926109cf9284920190610a4d565b5060208281015180516109e89260018501920190610a4d565b50604091820151600290910155336000818152600160208190529290205490917fd19c40c8156d62aad63c59c5af913a95db85029405bb2ac87536abac3c99ee6391610a349190611054565b604051610a419190611021565b60405180910390a25050565b828054610a5990611077565b90600052602060002090601f016020900481019282610a7b5760008555610ac1565b82601f10610a9457805160ff1916838001178555610ac1565b82800160010185558215610ac1579182015b82811115610ac1578251825591602001919060010190610aa6565b50610acd929150610b59565b5090565b828054828255906000526020600020908101928215610b1e579160200282015b82811115610b1e5782518051610b0e918491602090910190610a4d565b5091602001919060010190610af1565b50610acd929150610b6e565b6040518060a0016040528060608152602001600081526020016060815260200160608152602001606081525090565b5b80821115610acd5760008155600101610b5a565b80821115610acd576000610b828282610b8b565b50600101610b6e565b508054610b9790611077565b6000825580601f10610ba95750610bc7565b601f016020900490600052602060002090810190610bc79190610b59565b50565b80356001600160a01b03811681146106ae57600080fd5b600082601f830112610bf1578081fd5b813567ffffffffffffffff811115610c0b57610c0b6110b2565b610c1e601f8201601f191660200161102a565b818152846020838601011115610c32578283fd5b816020850160208301379081016020019190915292915050565b600060208284031215610c5d578081fd5b610c6682610bca565b9392505050565b60008060408385031215610c7f578081fd5b610c8883610bca565b946020939093013593505050565b60008060408385031215610ca8578182fd5b823567ffffffffffffffff80821115610cbf578384fd5b610ccb86838701610be1565b93506020850135915080821115610ce0578283fd5b50610ced85828601610be1565b9150509250929050565b600080600080600060a08688031215610d0e578081fd5b853567ffffffffffffffff80821115610d25578283fd5b610d3189838a01610be1565b965060209150818801359550604088013581811115610d4e578384fd5b610d5a8a828b01610be1565b955050606088013581811115610d6e578384fd5b8801601f81018a13610d7e578384fd5b803582811115610d9057610d906110b2565b610d9d848583020161102a565b81815284810190838601875b84811015610dd257610dc08f898435890101610be1565b84529287019290870190600101610da9565b50909750505050608089013592505080821115610ded578283fd5b50610dfa88828901610be1565b9150509295509295909350565b60008151808452815b81811015610e2c57602081850181015186830182015201610e10565b81811115610e3d5782602083870101525b50601f01601f19169290920160200192915050565b60208082528251828201819052600091906040908185019080840286018301878501865b83811015610ed257603f19898403018552815160608151818652610e9c82870182610e07565b915050888201518582038a870152610eb48282610e07565b92890151958901959095525094870194925090860190600101610e76565b509098975050505050505050565b600060608252610ef36060830186610e07565b8281036020840152610f058186610e07565b915050826040830152949350505050565b600060808252610f296080830187610e07565b8560208401528281036040840152610f418186610e07565b90508281036060840152610f558185610e07565b979650505050505050565b60006020808352835160a082850152610f7c60c0850182610e07565b90508185015160408501526040850151601f1980868403016060870152610fa38383610e07565b6060880151878203830160808901528051808352919450850192508484019085810285018601875b82811015610ff75784878303018452610fe5828751610e07565b95880195938801939150600101610fcb565b5060808a01519650838982030160a08a01526110138188610e07565b9a9950505050505050505050565b90815260200190565b60405181810167ffffffffffffffff8111828210171561104c5761104c6110b2565b604052919050565b60008282101561107257634e487b7160e01b81526011600452602481fd5b500390565b60028104600182168061108b57607f821691505b602082108114156110ac57634e487b7160e01b600052602260045260246000fd5b50919050565b634e487b7160e01b600052604160045260246000fdfea2646970667358221220571fb26913ccd8639c65eb6d0d8a0fe8e88ab99877edff0b03d71d3299f276c364736f6c63430008000033",
  "immutableReferences": {},
  "source": "pragma solidity ^0.8.0;\r\n\r\ncontract PatientRecords {\r\n    struct Patient {\r\n        string fullName;\r\n        uint256 dob; // Timestamp\r\n        string bloodType;\r\n        string[] allergies;\r\n        string emergencyContact;\r\n    }\r\n\r\n    struct MedicalRecord {\r\n        string diagnosis;\r\n        string prescription;\r\n        uint256 date;\r\n    }\r\n\r\n    // Mapping from patient address to their profile\r\n    mapping(address => Patient) public patients;\r\n    \r\n    // Mapping from patient address to their records\r\n    mapping(address => MedicalRecord[]) public medicalRecords;\r\n\r\n    // Events\r\n    event ProfileUpdated(address indexed patient);\r\n    event RecordAdded(address indexed patient, uint256 recordId);\r\n\r\n    function updateProfile(\r\n        string memory _fullName,\r\n        uint256 _dob,\r\n        string memory _bloodType,\r\n        string[] memory _allergies,\r\n        string memory _emergencyContact\r\n    ) public {\r\n        patients[msg.sender] = Patient(\r\n            _fullName,\r\n            _dob,\r\n            _bloodType,\r\n            _allergies,\r\n            _emergencyContact\r\n        );\r\n        emit ProfileUpdated(msg.sender);\r\n    }\r\n\r\n    function addMedicalRecord(\r\n        string memory _diagnosis,\r\n        string memory _prescription\r\n    ) public {\r\n        medicalRecords[msg.sender].push(MedicalRecord(\r\n            _diagnosis,\r\n            _prescription,\r\n            block.timestamp\r\n        ));\r\n        emit RecordAdded(msg.sender, medicalRecords[msg.sender].length - 1);\r\n    }\r\n\r\n    function getPatient(address _patient) public view returns (Patient memory) {\r\n        return patients[_patient];\r\n    }\r\n\r\n    function getMedicalRecords(address _patient) public view returns (MedicalRecord[] memory) {\r\n        return medicalRecords[_patient];\r\n    }\r\n}",
  "sourcePath": "D:\\blockchain-healthcare\\contracts\\PatientRecords.sol",
  "compiler": {
    "name": "solc",
    "version": "0.8.0+commit.c7dfd78e.Emscripten.clang"
  },
  "schemaVersion": "3.4.16",
  "updatedAt": "2025-04-26T16:57:22.621Z",
  "networkType": "ethereum",
  "devdoc": {
    "kind": "dev",
    "methods": {},
    "version": 1
  },
  "userdoc": {
    "kind": "user",
    "methods": {},
    "version": 1
  }
}