{
  "contractName": "PatientRecords",
  "abi": [
    {
      "inputs": [
        {
          "internalType": "uint256",
          "name": "",
          "type": "uint256"
        }
      ],
      "name": "patients",
      "outputs": [
        {
          "internalType": "address",
          "name": "",
          "type": "address"
        }
      ],
      "stateMutability": "view",
      "type": "function",
      "constant": true
    },
    {
      "inputs": [
        {
          "internalType": "string",
          "name": "_name",
          "type": "string"
        },
        {
          "internalType": "uint256",
          "name": "_age",
          "type": "uint256"
        },
        {
          "internalType": "string",
          "name": "_diagnosis",
          "type": "string"
        }
      ],
      "name": "addRecord",
      "outputs": [],
      "stateMutability": "nonpayable",
      "type": "function"
    },
    {
      "inputs": [],
      "name": "getRecord",
      "outputs": [
        {
          "internalType": "string",
          "name": "",
          "type": "string"
        },
        {
          "internalType": "uint256",
          "name": "",
          "type": "uint256"
        },
        {
          "internalType": "string",
          "name": "",
          "type": "string"
        }
      ],
      "stateMutability": "view",
      "type": "function",
      "constant": true
    }
  ],
  "bytecode": "0x608060405234801561001057600080fd5b506105a5806100206000396000f3fe608060405234801561001057600080fd5b50600436106100415760003560e01c806393119a8314610046578063eea8cf0f1461006f578063f18ad6fb14610084575b600080fd5b610059610054366004610472565b61009b565b60405161006691906104d5565b60405180910390f35b61008261007d366004610408565b6100c5565b005b61008c61016e565b604051610066939291906104e9565b600181815481106100ab57600080fd5b6000918252602090912001546001600160a01b0316905081565b60408051606081018252848152602080820185905281830184905233600090815280825292909220815180519293919261010292849201906102ee565b5060208281015160018301556040830151805161012592600285019201906102ee565b50506001805480820182556000919091527fb10e2d527612073b26eecdfd717e6a320cf44b4afac2b0732d9fcbe2b7fa0cf60180546001600160a01b0319163317905550505050565b6060600060606000806000336001600160a01b03166001600160a01b031681526020019081526020016000206040518060600160405290816000820180546101b59061051e565b80601f01602080910402602001604051908101604052809291908181526020018280546101e19061051e565b801561022e5780601f106102035761010080835404028352916020019161022e565b820191906000526020600020905b81548152906001019060200180831161021157829003601f168201915b50505050508152602001600182015481526020016002820180546102519061051e565b80601f016020809104026020016040519081016040528092919081815260200182805461027d9061051e565b80156102ca5780601f1061029f576101008083540402835291602001916102ca565b820191906000526020600020905b8154815290600101906020018083116102ad57829003601f168201915b50505091909252505081516020830151604090930151909792965094509092505050565b8280546102fa9061051e565b90600052602060002090601f01602090048101928261031c5760008555610362565b82601f1061033557805160ff1916838001178555610362565b82800160010185558215610362579182015b82811115610362578251825591602001919060010190610347565b5061036e929150610372565b5090565b5b8082111561036e5760008155600101610373565b600082601f830112610397578081fd5b813567ffffffffffffffff808211156103b2576103b2610559565b604051601f8301601f1916810160200182811182821017156103d6576103d6610559565b6040528281528483016020018610156103ed578384fd5b82602086016020830137918201602001929092529392505050565b60008060006060848603121561041c578283fd5b833567ffffffffffffffff80821115610433578485fd5b61043f87838801610387565b945060208601359350604086013591508082111561045b578283fd5b5061046886828701610387565b9150509250925092565b600060208284031215610483578081fd5b5035919050565b60008151808452815b818110156104af57602081850181015186830182015201610493565b818111156104c05782602083870101525b50601f01601f19169290920160200192915050565b6001600160a01b0391909116815260200190565b6000606082526104fc606083018661048a565b8460208401528281036040840152610514818561048a565b9695505050505050565b60028104600182168061053257607f821691505b6020821081141561055357634e487b7160e01b600052602260045260246000fd5b50919050565b634e487b7160e01b600052604160045260246000fdfea2646970667358221220b280115b20ca3fc1e6fda90563f356f0676f114fed23b18fe293a6efad7f471b64736f6c63430008000033",
  "immutableReferences": {},
  "source": "// SPDX-License-Identifier: MIT\r\npragma solidity 0.8.0;\r\n\r\ncontract PatientRecords {\r\n    struct Record {\r\n        string name;\r\n        uint256 age;\r\n        string diagnosis;\r\n    }\r\n\r\n    mapping(address => Record) private records;\r\n    address[] public patients;\r\n\r\n    function addRecord(string memory _name, uint256 _age, string memory _diagnosis) public {\r\n        records[msg.sender] = Record(_name, _age, _diagnosis);\r\n        patients.push(msg.sender);\r\n    }\r\n\r\n    function getRecord() public view returns (string memory, uint256, string memory) {\r\n        Record memory record = records[msg.sender];\r\n        return (record.name, record.age, record.diagnosis);\r\n    }\r\n}",
  "sourcePath": "D:\\blockchain-healthcare\\contracts\\PatientRecords.sol",
  "compiler": {
    "name": "solc",
    "version": "0.8.0+commit.c7dfd78e.Emscripten.clang"
  },
  "schemaVersion": "3.4.16",
  "updatedAt": "2025-03-31T19:10:17.279Z",
  "networkType": "ethereum",
  "devdoc": {
    "kind": "dev",
    "methods": {},
    "version": 1
  },
  "userdoc": {
    "kind": "user",
    "methods": {},
    "version": 1
  }
}